{
  "address": "0xe7f1725E7734CE288F8367e1Bb143E90bb3F0512",
  "abi": [
    {
      "inputs": [
        {
          "internalType": "address",
          "name": "_token",
          "type": "address"
        },
        {
          "internalType": "uint256",
          "name": "_initialRate",
          "type": "uint256"
        }
      ],
      "stateMutability": "nonpayable",
      "type": "constructor"
    },
    {
      "inputs": [
        {
          "internalType": "address",
          "name": "",
          "type": "address"
        }
      ],
      "name": "accumulatedListeningTime",
      "outputs": [
        {
          "internalType": "uint256",
          "name": "",
          "type": "uint256"
        }
      ],
      "stateMutability": "view",
      "type": "function"
    },
    {
      "inputs": [],
      "name": "getDate",
      "outputs": [
        {
          "internalType": "uint256",
          "name": "",
          "type": "uint256"
        }
      ],
      "stateMutability": "view",
      "type": "function"
    },
    {
      "inputs": [],
      "name": "i_registerationFee",
      "outputs": [
        {
          "internalType": "uint256",
          "name": "",
          "type": "uint256"
        }
      ],
      "stateMutability": "view",
      "type": "function"
    },
    {
      "inputs": [],
      "name": "initialRate",
      "outputs": [
        {
          "internalType": "uint256",
          "name": "",
          "type": "uint256"
        }
      ],
      "stateMutability": "view",
      "type": "function"
    },
    {
      "inputs": [
        {
          "internalType": "address",
          "name": "",
          "type": "address"
        }
      ],
      "name": "isUser",
      "outputs": [
        {
          "internalType": "bool",
          "name": "",
          "type": "bool"
        }
      ],
      "stateMutability": "view",
      "type": "function"
    },
    {
      "inputs": [
        {
          "internalType": "address",
          "name": "",
          "type": "address"
        }
      ],
      "name": "lastListeningTime",
      "outputs": [
        {
          "internalType": "uint256",
          "name": "",
          "type": "uint256"
        }
      ],
      "stateMutability": "view",
      "type": "function"
    },
    {
      "inputs": [
        {
          "internalType": "address",
          "name": "",
          "type": "address"
        }
      ],
      "name": "lastRewardTime",
      "outputs": [
        {
          "internalType": "uint256",
          "name": "",
          "type": "uint256"
        }
      ],
      "stateMutability": "view",
      "type": "function"
    },
    {
      "inputs": [],
      "name": "listeningTime",
      "outputs": [
        {
          "internalType": "uint256",
          "name": "",
          "type": "uint256"
        }
      ],
      "stateMutability": "view",
      "type": "function"
    },
    {
      "inputs": [],
      "name": "listeningTimeThreshold",
      "outputs": [
        {
          "internalType": "uint256",
          "name": "",
          "type": "uint256"
        }
      ],
      "stateMutability": "view",
      "type": "function"
    },
    {
      "inputs": [],
      "name": "registerUser",
      "outputs": [],
      "stateMutability": "nonpayable",
      "type": "function"
    },
    {
      "inputs": [],
      "name": "registeredUser",
      "outputs": [
        {
          "internalType": "uint256",
          "name": "",
          "type": "uint256"
        }
      ],
      "stateMutability": "view",
      "type": "function"
    },
    {
      "inputs": [
        {
          "internalType": "address",
          "name": "_user",
          "type": "address"
        }
      ],
      "name": "rewardUser",
      "outputs": [],
      "stateMutability": "payable",
      "type": "function"
    },
    {
      "inputs": [],
      "name": "startListening",
      "outputs": [],
      "stateMutability": "nonpayable",
      "type": "function"
    },
    {
      "inputs": [],
      "name": "token",
      "outputs": [
        {
          "internalType": "contract IERC20",
          "name": "",
          "type": "address"
        }
      ],
      "stateMutability": "view",
      "type": "function"
    },
    {
      "inputs": [
        {
          "internalType": "address",
          "name": "",
          "type": "address"
        }
      ],
      "name": "userBalance",
      "outputs": [
        {
          "internalType": "uint256",
          "name": "",
          "type": "uint256"
        }
      ],
      "stateMutability": "view",
      "type": "function"
    },
    {
      "inputs": [
        {
          "internalType": "uint256",
          "name": "",
          "type": "uint256"
        }
      ],
      "name": "users",
      "outputs": [
        {
          "internalType": "address",
          "name": "",
          "type": "address"
        }
      ],
      "stateMutability": "view",
      "type": "function"
    },
    {
      "inputs": [],
      "name": "weekDuration",
      "outputs": [
        {
          "internalType": "uint256",
          "name": "",
          "type": "uint256"
        }
      ],
      "stateMutability": "view",
      "type": "function"
    },
    {
      "inputs": [
        {
          "internalType": "address",
          "name": "_user",
          "type": "address"
        }
      ],
      "name": "withdraw",
      "outputs": [],
      "stateMutability": "nonpayable",
      "type": "function"
    }
  ],
  "transactionHash": "0x58bb89d881e22da521db978c5a4582b5714b28ab79bbab2d61447cb3a8059515",
  "args": [
    "0x5fbdb2315678afecb367f032d93f642f64180aa3",
    5000000000000
  ],
  "numDeployments": 1,
  "solcInputHash": "fd2e7c25df0e16037ce19995da9ada28",
  "bytecode": "0x60a0604052620249f060055562093a806006556611c37937e080006080908152503480156200002d57600080fd5b5060405162001eff38038062001eff833981810160405281019062000053919062000206565b600073ffffffffffffffffffffffffffffffffffffffff168273ffffffffffffffffffffffffffffffffffffffff1603620000c5576040517f08c379a0000000000000000000000000000000000000000000000000000000008152600401620000bc90620002ae565b60405180910390fd5b600081116200010b576040517f08c379a0000000000000000000000000000000000000000000000000000000008152600401620001029062000346565b60405180910390fd5b816000806101000a81548173ffffffffffffffffffffffffffffffffffffffff021916908373ffffffffffffffffffffffffffffffffffffffff1602179055508060028190555080600381905550505062000368565b600080fd5b600073ffffffffffffffffffffffffffffffffffffffff82169050919050565b6000620001938262000166565b9050919050565b620001a58162000186565b8114620001b157600080fd5b50565b600081519050620001c5816200019a565b92915050565b6000819050919050565b620001e081620001cb565b8114620001ec57600080fd5b50565b6000815190506200020081620001d5565b92915050565b6000806040838503121562000220576200021f62000161565b5b60006200023085828601620001b4565b92505060206200024385828601620001ef565b9150509250929050565b600082825260208201905092915050565b7f696e76616c696420746f6b656e00000000000000000000000000000000000000600082015250565b600062000296600d836200024d565b9150620002a3826200025e565b602082019050919050565b60006020820190508181036000830152620002c98162000287565b9050919050565b7f496e697469616c2072617465206d75737420626520677265617465722074686160008201527f6e20300000000000000000000000000000000000000000000000000000000000602082015250565b60006200032e6023836200024d565b91506200033b82620002d0565b604082019050919050565b6000602082019050818103600083015262000361816200031f565b9050919050565b608051611b6d62000392600039600081816107b60152818161087d0152610fdd0152611b6d6000f3fe6080604052600436106101095760003560e01c80635dae50b811610095578063aa3ee4cf11610064578063aa3ee4cf1461035e578063c0399e6614610389578063c7d95a5f146103b4578063f4028803146103f1578063fc0c546a1461041c57610109565b80635dae50b8146102af5780638076b638146102ec5780639e51051f14610317578063a6afd7db1461034257610109565b80633b5d441e116100dc5780633b5d441e146101ca5780634209fff114610207578063430fe9c1146102445780634d3820eb1461026f57806351cff8d91461028657610109565b80630103c92b1461010e57806304a3adf71461014b57806312b8bbdd14610176578063365b98b21461018d575b600080fd5b34801561011a57600080fd5b50610135600480360381019061013091906113de565b610447565b6040516101429190611424565b60405180910390f35b34801561015757600080fd5b5061016061045f565b60405161016d9190611424565b60405180910390f35b34801561018257600080fd5b5061018b610465565b005b34801561019957600080fd5b506101b460048036038101906101af919061146b565b61065f565b6040516101c191906114a7565b60405180910390f35b3480156101d657600080fd5b506101f160048036038101906101ec91906113de565b61069e565b6040516101fe9190611424565b60405180910390f35b34801561021357600080fd5b5061022e600480360381019061022991906113de565b6106b6565b60405161023b91906114dd565b60405180910390f35b34801561025057600080fd5b506102596106d6565b6040516102669190611424565b60405180910390f35b34801561027b57600080fd5b506102846106de565b005b34801561029257600080fd5b506102ad60048036038101906102a891906113de565b610a18565b005b3480156102bb57600080fd5b506102d660048036038101906102d191906113de565b610c13565b6040516102e39190611424565b60405180910390f35b3480156102f857600080fd5b50610301610c2b565b60405161030e9190611424565b60405180910390f35b34801561032357600080fd5b5061032c610c31565b6040516103399190611424565b60405180910390f35b61035c600480360381019061035791906113de565b610c37565b005b34801561036a57600080fd5b50610373610fb7565b6040516103809190611424565b60405180910390f35b34801561039557600080fd5b5061039e610fbd565b6040516103ab9190611424565b60405180910390f35b3480156103c057600080fd5b506103db60048036038101906103d691906113de565b610fc3565b6040516103e89190611424565b60405180910390f35b3480156103fd57600080fd5b50610406610fdb565b6040516104139190611424565b60405180910390f35b34801561042857600080fd5b50610431610fff565b60405161043e9190611557565b60405180910390f35b60086020528060005260406000206000915090505481565b60065481565b600c60003373ffffffffffffffffffffffffffffffffffffffff1673ffffffffffffffffffffffffffffffffffffffff16815260200190815260200160002060009054906101000a900460ff166104f1576040517f08c379a00000000000000000000000000000000000000000000000000000000081526004016104e8906115cf565b60405180910390fd5b42600654600960003373ffffffffffffffffffffffffffffffffffffffff1673ffffffffffffffffffffffffffffffffffffffff1681526020019081526020016000205461053f919061161e565b1015610580576040517f08c379a00000000000000000000000000000000000000000000000000000000081526004016105779061169e565b60405180910390fd5b600654600960003373ffffffffffffffffffffffffffffffffffffffff1673ffffffffffffffffffffffffffffffffffffffff168152602001908152602001600020546105cd919061161e565b4210610619576000600b60003373ffffffffffffffffffffffffffffffffffffffff1673ffffffffffffffffffffffffffffffffffffffff168152602001908152602001600020819055505b42600960003373ffffffffffffffffffffffffffffffffffffffff1673ffffffffffffffffffffffffffffffffffffffff16815260200190815260200160002081905550565b6007818154811061066f57600080fd5b906000526020600020016000915054906101000a900473ffffffffffffffffffffffffffffffffffffffff1681565b600a6020528060005260406000206000915090505481565b600c6020528060005260406000206000915054906101000a900460ff1681565b600042905090565b600c60003373ffffffffffffffffffffffffffffffffffffffff1673ffffffffffffffffffffffffffffffffffffffff16815260200190815260200160002060009054906101000a900460ff161561076b576040517f08c379a00000000000000000000000000000000000000000000000000000000081526004016107629061170a565b60405180910390fd5b6103e86004541061093b5760008054906101000a900473ffffffffffffffffffffffffffffffffffffffff1673ffffffffffffffffffffffffffffffffffffffff166323b872dd33307f00000000000000000000000000000000000000000000000000000000000000006040518463ffffffff1660e01b81526004016107f39392919061172a565b6020604051808303816000875af1158015610812573d6000803e3d6000fd5b505050506040513d601f19601f82011682018060405250810190610836919061178d565b61083f57600080fd5b60008054906101000a900473ffffffffffffffffffffffffffffffffffffffff1673ffffffffffffffffffffffffffffffffffffffff166342966c687f00000000000000000000000000000000000000000000000000000000000000006040518263ffffffff1660e01b81526004016108b89190611424565b6020604051808303816000875af11580156108d7573d6000803e3d6000fd5b505050506040513d601f19601f820116820180604052508101906108fb919061178d565b61093a576040517f08c379a000000000000000000000000000000000000000000000000000000000815260040161093190611806565b60405180910390fd5b5b6001600c60003373ffffffffffffffffffffffffffffffffffffffff1673ffffffffffffffffffffffffffffffffffffffff16815260200190815260200160002060006101000a81548160ff0219169083151502179055506007339080600181540180825580915050600190039060005260206000200160009091909190916101000a81548173ffffffffffffffffffffffffffffffffffffffff021916908373ffffffffffffffffffffffffffffffffffffffff16021790555060046000815480929190610a0990611826565b9190505550610a16611023565b565b600c60003373ffffffffffffffffffffffffffffffffffffffff1673ffffffffffffffffffffffffffffffffffffffff16815260200190815260200160002060009054906101000a900460ff16610aa4576040517f08c379a0000000000000000000000000000000000000000000000000000000008152600401610a9b906115cf565b60405180910390fd5b6000600860008373ffffffffffffffffffffffffffffffffffffffff1673ffffffffffffffffffffffffffffffffffffffff16815260200190815260200160002054905060008111610b2b576040517f08c379a0000000000000000000000000000000000000000000000000000000008152600401610b22906118e0565b60405180910390fd5b6000600860008473ffffffffffffffffffffffffffffffffffffffff1673ffffffffffffffffffffffffffffffffffffffff1681526020019081526020016000208190555060008054906101000a900473ffffffffffffffffffffffffffffffffffffffff1673ffffffffffffffffffffffffffffffffffffffff1663a9059cbb83836040518363ffffffff1660e01b8152600401610bcb929190611900565b6020604051808303816000875af1158015610bea573d6000803e3d6000fd5b505050506040513d601f19601f82011682018060405250810190610c0e919061178d565b505050565b60096020528060005260406000206000915090505481565b60015481565b60025481565b600c60003373ffffffffffffffffffffffffffffffffffffffff1673ffffffffffffffffffffffffffffffffffffffff16815260200190815260200160002060009054906101000a900460ff16610cc3576040517f08c379a0000000000000000000000000000000000000000000000000000000008152600401610cba906115cf565b60405180910390fd5b42600654600960008473ffffffffffffffffffffffffffffffffffffffff1673ffffffffffffffffffffffffffffffffffffffff16815260200190815260200160002054610d11919061161e565b1015610d52576040517f08c379a0000000000000000000000000000000000000000000000000000000008152600401610d499061169e565b60405180910390fd5b6000600960008373ffffffffffffffffffffffffffffffffffffffff1673ffffffffffffffffffffffffffffffffffffffff1681526020019081526020016000205442610d9f9190611929565b905080600b60008473ffffffffffffffffffffffffffffffffffffffff1673ffffffffffffffffffffffffffffffffffffffff16815260200190815260200160002081905550600554600b60008473ffffffffffffffffffffffffffffffffffffffff1673ffffffffffffffffffffffffffffffffffffffff1681526020019081526020016000205410610fb357600654600a60008473ffffffffffffffffffffffffffffffffffffffff1673ffffffffffffffffffffffffffffffffffffffff16815260200190815260200160002054610e7a919061161e565b4210610fb2576000600b60008473ffffffffffffffffffffffffffffffffffffffff1673ffffffffffffffffffffffffffffffffffffffff16815260200190815260200160002054600354610ecf919061195d565b9050610eda81611153565b60008111610f1d576040517f08c379a0000000000000000000000000000000000000000000000000000000008152600401610f14906119eb565b60405180910390fd5b610f2783826111ec565b6000600b60008573ffffffffffffffffffffffffffffffffffffffff1673ffffffffffffffffffffffffffffffffffffffff1681526020019081526020016000208190555042600a60008573ffffffffffffffffffffffffffffffffffffffff1673ffffffffffffffffffffffffffffffffffffffff16815260200190815260200160002081905550505b5b5050565b60045481565b60055481565b600b6020528060005260406000206000915090505481565b7f000000000000000000000000000000000000000000000000000000000000000081565b60008054906101000a900473ffffffffffffffffffffffffffffffffffffffff1681565b60006103e86004546110359190611a3a565b03611151576000620186a0601960035461104f919061195d565b6110599190611a6b565b9050806003600082825461106d9190611929565b9250508190555060008054906101000a900473ffffffffffffffffffffffffffffffffffffffff1673ffffffffffffffffffffffffffffffffffffffff166342966c68826040518263ffffffff1660e01b81526004016110cd9190611424565b6020604051808303816000875af11580156110ec573d6000803e3d6000fd5b505050506040513d601f19601f82011682018060405250810190611110919061178d565b61114f576040517f08c379a000000000000000000000000000000000000000000000000000000000815260040161114690611ae8565b60405180910390fd5b505b565b6111e9816040516024016111679190611424565b6040516020818303038152906040527ff82c50f1000000000000000000000000000000000000000000000000000000007bffffffffffffffffffffffffffffffffffffffffffffffffffffffff19166020820180517bffffffffffffffffffffffffffffffffffffffffffffffffffffffff838183161783525050505061132b565b50565b600073ffffffffffffffffffffffffffffffffffffffff168273ffffffffffffffffffffffffffffffffffffffff160361122557600080fd5b6000810361123257600080fd5b60008054906101000a900473ffffffffffffffffffffffffffffffffffffffff1673ffffffffffffffffffffffffffffffffffffffff1663a9059cbb83836040518363ffffffff1660e01b815260040161128d929190611900565b6020604051808303816000875af11580156112ac573d6000803e3d6000fd5b505050506040513d601f19601f820116820180604052508101906112d0919061178d565b5080600860008473ffffffffffffffffffffffffffffffffffffffff1673ffffffffffffffffffffffffffffffffffffffff1681526020019081526020016000206000828254611320919061161e565b925050819055505050565b6113428161133a611345611366565b63ffffffff16565b50565b60006a636f6e736f6c652e6c6f679050600080835160208501845afa505050565b611371819050919050565b611379611b08565b565b600080fd5b600073ffffffffffffffffffffffffffffffffffffffff82169050919050565b60006113ab82611380565b9050919050565b6113bb816113a0565b81146113c657600080fd5b50565b6000813590506113d8816113b2565b92915050565b6000602082840312156113f4576113f361137b565b5b6000611402848285016113c9565b91505092915050565b6000819050919050565b61141e8161140b565b82525050565b60006020820190506114396000830184611415565b92915050565b6114488161140b565b811461145357600080fd5b50565b6000813590506114658161143f565b92915050565b6000602082840312156114815761148061137b565b5b600061148f84828501611456565b91505092915050565b6114a1816113a0565b82525050565b60006020820190506114bc6000830184611498565b92915050565b60008115159050919050565b6114d7816114c2565b82525050565b60006020820190506114f260008301846114ce565b92915050565b6000819050919050565b600061151d61151861151384611380565b6114f8565b611380565b9050919050565b600061152f82611502565b9050919050565b600061154182611524565b9050919050565b61155181611536565b82525050565b600060208201905061156c6000830184611548565b92915050565b600082825260208201905092915050565b7f4e6f7420612072656769737465726564206d656d626572000000000000000000600082015250565b60006115b9601783611572565b91506115c482611583565b602082019050919050565b600060208201905081810360008301526115e8816115ac565b9050919050565b7f4e487b7100000000000000000000000000000000000000000000000000000000600052601160045260246000fd5b60006116298261140b565b91506116348361140b565b925082820190508082111561164c5761164b6115ef565b5b92915050565b7f6c697374656e696e672073657373696f6e206578706972656400000000000000600082015250565b6000611688601983611572565b915061169382611652565b602082019050919050565b600060208201905081810360008301526116b78161167b565b9050919050565b7f616c726561647920612072656769737465726564206d656d6265720000000000600082015250565b60006116f4601b83611572565b91506116ff826116be565b602082019050919050565b60006020820190508181036000830152611723816116e7565b9050919050565b600060608201905061173f6000830186611498565b61174c6020830185611498565b6117596040830184611415565b949350505050565b61176a816114c2565b811461177557600080fd5b50565b60008151905061178781611761565b92915050565b6000602082840312156117a3576117a261137b565b5b60006117b184828501611778565b91505092915050565b7f4275726e206661696c6564000000000000000000000000000000000000000000600082015250565b60006117f0600b83611572565b91506117fb826117ba565b602082019050919050565b6000602082019050818103600083015261181f816117e3565b9050919050565b60006118318261140b565b91507fffffffffffffffffffffffffffffffffffffffffffffffffffffffffffffffff8203611863576118626115ef565b5b600182019050919050565b7f557365722062616c616e6365206d75737420626520677265617465722074686160008201527f6e20300000000000000000000000000000000000000000000000000000000000602082015250565b60006118ca602383611572565b91506118d58261186e565b604082019050919050565b600060208201905081810360008301526118f9816118bd565b9050919050565b60006040820190506119156000830185611498565b6119226020830184611415565b9392505050565b60006119348261140b565b915061193f8361140b565b9250828203905081811115611957576119566115ef565b5b92915050565b60006119688261140b565b91506119738361140b565b92508282026119818161140b565b91508282048414831517611998576119976115ef565b5b5092915050565b7f55736572206561726e6564206e6f7468696e6700000000000000000000000000600082015250565b60006119d5601383611572565b91506119e08261199f565b602082019050919050565b60006020820190508181036000830152611a04816119c8565b9050919050565b7f4e487b7100000000000000000000000000000000000000000000000000000000600052601260045260246000fd5b6000611a458261140b565b9150611a508361140b565b925082611a6057611a5f611a0b565b5b828206905092915050565b6000611a768261140b565b9150611a818361140b565b925082611a9157611a90611a0b565b5b828204905092915050565b7f4275726e696e67206661696c6564000000000000000000000000000000000000600082015250565b6000611ad2600e83611572565b9150611add82611a9c565b602082019050919050565b60006020820190508181036000830152611b0181611ac5565b9050919050565b7f4e487b7100000000000000000000000000000000000000000000000000000000600052605160045260246000fdfea26469706673582212201990c212d54ae96a6521807dbb3b83d31d149cba16ddebd08ee74d7083ecbc0964736f6c63430008130033",
  "devdoc": {
    "kind": "dev",
    "methods": {
      "constructor": {
        "details": "The currentRate is used for the calculation of rewards, at the start of the users count, the currentRate is set to the _initialRate.",
        "params": {
          "_initialRate": "initial rate the user earned for every song listened to, at an average 2.5min/song",
          "_token": "Address of the token being earned"
        }
      },
      "registerUser()": {
        "details": "A registeration fee is included after we get to a 1000 users **THIS IS OPTIONAL**the internal function, check and update is implemented when we meet the functions conditions"
      },
      "rewardUser(address)": {
        "custom:listeningtime": "is calculated by subtracting the user's lastListeningTime from the current block.timestamp. This gives us the duration of the current listening session.",
        "details": "Users funds are forwarded,state is updated, only a registered user can earn rewards. Use require to revert state if conditions arent metchecks if the accumulatedListening time is greater than the listeningTime Threshold, if true, then checks for the lastime reward was sent, it its been upto a week",
        "params": {
          "_user": "Address of the listener"
        }
      },
      "startListening()": {
        "details": "Verification of listening session and Observation of previous session, state is restarted if true. Only user can start listening"
      },
      "withdraw(address)": {
        "details": "allows only register users to withdraw their funds. use require to revert state if conditions arent met.",
        "params": {
          "_user": "Address of the listener"
        }
      }
    },
    "version": 1
  },
  "userdoc": {
    "kind": "user",
    "methods": {
      "registerUser()": {
        "notice": "registers a user"
      },
      "rewardUser(address)": {
        "notice": "rewards users after all conditions met"
      },
      "startListening()": {
        "notice": "Starts a listening session if the new week's accumulated time is less than threshold"
      },
      "withdraw(address)": {
        "notice": "users can withdraw their funds"
      }
    },
    "version": 1
  },
  "storageLayout": {
    "storage": [
      {
        "astId": 904,
        "contract": "contracts/ListenToEarn.sol:ListenToEarn",
        "label": "token",
        "offset": 0,
        "slot": "0",
        "type": "t_contract(IERC20)901"
      },
      {
        "astId": 906,
        "contract": "contracts/ListenToEarn.sol:ListenToEarn",
        "label": "listeningTime",
        "offset": 0,
        "slot": "1",
        "type": "t_uint256"
      },
      {
        "astId": 908,
        "contract": "contracts/ListenToEarn.sol:ListenToEarn",
        "label": "initialRate",
        "offset": 0,
        "slot": "2",
        "type": "t_uint256"
      },
      {
        "astId": 910,
        "contract": "contracts/ListenToEarn.sol:ListenToEarn",
        "label": "currentRate",
        "offset": 0,
        "slot": "3",
        "type": "t_uint256"
      },
      {
        "astId": 912,
        "contract": "contracts/ListenToEarn.sol:ListenToEarn",
        "label": "registeredUser",
        "offset": 0,
        "slot": "4",
        "type": "t_uint256"
      },
      {
        "astId": 915,
        "contract": "contracts/ListenToEarn.sol:ListenToEarn",
        "label": "listeningTimeThreshold",
        "offset": 0,
        "slot": "5",
        "type": "t_uint256"
      },
      {
        "astId": 918,
        "contract": "contracts/ListenToEarn.sol:ListenToEarn",
        "label": "weekDuration",
        "offset": 0,
        "slot": "6",
        "type": "t_uint256"
      },
      {
        "astId": 924,
        "contract": "contracts/ListenToEarn.sol:ListenToEarn",
        "label": "users",
        "offset": 0,
        "slot": "7",
        "type": "t_array(t_address)dyn_storage"
      },
      {
        "astId": 928,
        "contract": "contracts/ListenToEarn.sol:ListenToEarn",
        "label": "userBalance",
        "offset": 0,
        "slot": "8",
        "type": "t_mapping(t_address,t_uint256)"
      },
      {
        "astId": 932,
        "contract": "contracts/ListenToEarn.sol:ListenToEarn",
        "label": "lastListeningTime",
        "offset": 0,
        "slot": "9",
        "type": "t_mapping(t_address,t_uint256)"
      },
      {
        "astId": 936,
        "contract": "contracts/ListenToEarn.sol:ListenToEarn",
        "label": "lastRewardTime",
        "offset": 0,
        "slot": "10",
        "type": "t_mapping(t_address,t_uint256)"
      },
      {
        "astId": 940,
        "contract": "contracts/ListenToEarn.sol:ListenToEarn",
        "label": "accumulatedListeningTime",
        "offset": 0,
        "slot": "11",
        "type": "t_mapping(t_address,t_uint256)"
      },
      {
        "astId": 944,
        "contract": "contracts/ListenToEarn.sol:ListenToEarn",
        "label": "isUser",
        "offset": 0,
        "slot": "12",
        "type": "t_mapping(t_address,t_bool)"
      }
    ],
    "types": {
      "t_address": {
        "encoding": "inplace",
        "label": "address",
        "numberOfBytes": "20"
      },
      "t_array(t_address)dyn_storage": {
        "base": "t_address",
        "encoding": "dynamic_array",
        "label": "address[]",
        "numberOfBytes": "32"
      },
      "t_bool": {
        "encoding": "inplace",
        "label": "bool",
        "numberOfBytes": "1"
      },
      "t_contract(IERC20)901": {
        "encoding": "inplace",
        "label": "contract IERC20",
        "numberOfBytes": "20"
      },
      "t_mapping(t_address,t_bool)": {
        "encoding": "mapping",
        "key": "t_address",
        "label": "mapping(address => bool)",
        "numberOfBytes": "32",
        "value": "t_bool"
      },
      "t_mapping(t_address,t_uint256)": {
        "encoding": "mapping",
        "key": "t_address",
        "label": "mapping(address => uint256)",
        "numberOfBytes": "32",
        "value": "t_uint256"
      },
      "t_uint256": {
        "encoding": "inplace",
        "label": "uint256",
        "numberOfBytes": "32"
      }
    }
  }
}